:100000000C9481000C945C020C949E000C949E0055
:100010000C949E000C949E000C949E000C949E00E8
:100020000C949E000C949E000C949E000C949E00D8
:100030000C949E000C949E000C949E000C949E00C8
:100040000C949E000C949E000C949E000C949E00B8
:100050000C949E000C949E000C949E000C949E00A8
:100060000C949E000C949E0005010906A101050751
:10007000190429391500250175019503810219E03C
:10008000290715002501750195058102C0000000B2
:100090000000000000000000000000000000000060
:1000A0000000000000000000000000000000000050
:1000B0000000000000000000090021000001110004
:1000C00008000100220000004F1201100100000092
:1000D00008C016DB2700010102000112034B006576
:1000E00000790062006F006100720064001003413B
:1000F000004B0041007200690065006E00040309B6
:10010000040011241FBECFEFD8E0DEBFCDBF11E049
:10011000A0E0B1E0EEE4F7E002C005900D92A2305D
:10012000B107D9F721E0A2E0B1E001C01D92AC33E4
:10013000B207E1F70E947D030C94A5030C94000024
:1001400008950895FC0180818076803611F080E06A
:1001500008958181823099F08A3061F08130B9F759
:1001600080910401909105019093210180932001D9
:1001700082E0089583818093020180E0089582E007
:1001800091E0909321018093200181E00895CF9325
:10019000C62F2091110124FF1DC02091120138E8C3
:1001A000232720931201E3E1F1E09C01D9012F5FA5
:1001B0003F4F9C9191939C2F921B980F1916B4F36B
:1001C0006C2F83E191E00E945802CC5FC093110133
:1001D000CF9108952AE520931101E5CFCF92DF92C8
:1001E000EF92FF920F931F93CF93DF9380912201A1
:1001F000835087FF5EC08091010184FF04C080911D
:1002000000018F3F89F494E103C0915009F44CC080
:1002100089B18471D1F3DF91CF911F910F91FF903C
:10022000EF90DF90CF900895682F893008F053C089
:10023000982F961B909300019091060128E8922731
:1002400090930601C4E0C60F8823D1F140912001AC
:10025000509121018091030186FF73C08FEF860FBB
:10026000282F30E0C901885F9E4F7C0187E091E034
:100270008A0107501140FC01E00FF11FE491DC01FD
:100280000196EC93E816F906B1F7CA010196820FC0
:10029000931F909321018093200187E091E00E94B9
:1002A0005802CC30A9F011C01092230110921D0108
:1002B000B2CF90911E019D3281F0109222019BCF0E
:1002C00060E087E091E00E9458028FEF8093000188
:1002D000C093010198CF68E0ABCF883071F780916F
:1002E0001F01CCE0D0E0C81BD109CA5DDE4F83EC12
:1002F000809306018AE580930101109203019881A1
:10030000892F8076D9F53A8110920F012981211128
:1003100039C09F7119F481E080930F011092100190
:100320002FE031E082E030932101209320019F8172
:10033000911104C09E81981708F4892F80930001C1
:10034000BCCF8FEF860F082F10E09801285F3E4F3B
:10035000690187E091E09A01275031407901DC0181
:10036000AE0DBF1DFC0101962C912083C816D90645
:10037000B1F7CA010196800F911F8BCFCE010E9469
:10038000A200D5CF253069F0263019F1283071F060
:100390002930A1F02A3071F02B30A9F02FE031E0A4
:1003A000C2CF309323012FE031E0BDCF25E231E011
:1003B00081E0B9CF2FE031E081E0B5CF3093250166
:1003C0002FE031E0B0CF9BE4909312012FE031E0B9
:1003D000AACF9B81913061F0923081F1933001F18D
:1003E0009132B1F0923261F090E4909303019FCF8B
:1003F00089EC90E0909321018093200182E1F4CF79
:1004000088E690E090932101809320018FE4ECCF67
:1004100089EC90E0909321018093200189E0E4CF62
:100420003323E1F0313091F03230F1F68BED90E092
:10043000909321018093200182E1D6CF87EB90E059
:10044000909321018093200181E0CECF8DEE90E04A
:10045000909321018093200180E1C6CF8DEF90E041
:10046000909321018093200184E0BECFE9E6F0E083
:10047000808182608083E89AE1E1F1E08BE481830E
:100480008AE580830895A82FB92F80E090E041E0AD
:1004900050EA609530E009C02D91822797958795A5
:1004A00010F084279527305EC8F36F5FA8F3089596
:1004B000EADF8D939D930895CF93CFB7CF93DF93CA
:1004C000C3954C9BE9F74C9B0BC04C9B09C04C9BC4
:1004D00007C04C9B05C04C9B03C04C9B01C08BC00C
:1004E0006F93C0911F01DD27CA5DDE4F2F9365E535
:1004F0004C9B03C02F916F91E6CF0F931F934F93A7
:1005000020E040E15F9309B1047104FB27F93F93B8
:1005100050E03BE039C0147140642F77012F5F5FDA
:100520001EC0406819B114712F7752501FC040642B
:1005300009B12F770471D1F15F5F00C023C0406221
:1005400019B12F77147191F15F5F00C025C004715C
:100550001027515012F45D5F0000115027952C3F79
:1005600019B1C8F614710127015027952C3FC8F620
:100570004227499309B1047110274F7311502795F1
:100580002C3FA8F64695469519B1147179F00127CC
:10059000015027952C3F98F66B5A60F3315009B102
:1005A000B0F600C011E01CBB002719C03B503195CC
:1005B000C31BD04011E01CBB0881033C09F10B3484
:1005C000F9F020911D011981110F1213EDCF4A810D
:1005D000441F093651F10D3211F0013E29F7009305
:1005E00024013F915F914F911F910F912F916F9136
:1005F000CCB3C0FD65CFDF91CF91CFBFCF91189520
:1006000020912401222369F310912201112391F5F5
:10061000343092F13093220120931E0110911F017A
:100620003BE0311B30931F0127C0009122010130B4
:100630000CF50AE54F7049F43091010134FD1DC0FD
:1006400000930101C6E0D1E01CC03091110134FDDE
:1006500014C000931101C2E1D1E013C0052710E0DE
:1006600000C000000BB91AC0052710E0221F1DC0F2
:1006700010E021C04AE502C032ED432FC4E1D0E0D2
:1006800032E01AB114615C9A0BB11AB954E120E856
:1006900065E320FF05270BB9279517951C3FF0F65A
:1006A0006695B8F7B1F720FF05270BB92795179581
:1006B0001C3FD0F62795179517FF052700001C3F14
:1006C0000BB9B0F629913A9519F70B7E10912301D9
:1006D000110FC651D0400BB911F010931D0111E05C
:1006E0001CBB00611AB11B7E402F4B7E54E05A9513
:1006F000F1F70BB91AB94BB974CF88E19EE00FB688
:10070000F894A895809360000FBE909360000E94BB
:100710003602549A8FEFA895EFE9FFE03197F1F791
:1007200000C000008150B9F754987894A8950E94B1
:10073000EE008091110184FFF9CF62E08091040105
:0E074000909105010E94C700F1CFF894FFCF01
:02074E00FF5A50
:00000001FF
